:100000000C942A000C9447000C9447000C94470071
:100010000C9447000C9447000C9447000C94470044
:100020000C9447000C9447000C9447000C94470034
:100030000C9447000C9447000C9447000C94470024
:100040000C9447000C9447000C9447000C94470014
:100050000C94470011241FBECFE5D8E0DEBFCDBF12
:1000600010E0A0E6B0E0E8EDFBE202C005900D92E2
:10007000A83EB107D9F710E0A8EEB0E001C01D928C
:10008000AC3EB107E1F70E9412120C94EA150C94F1
:100090000000EF92FF920F931F937B018C0120E0F1
:1000A00030E040E05FE40E94490388238CF0C801FF
:1000B000B70120E030E040E05FE40E94C1010E940F
:1000C000A9039B01AC01205030404040504806C07D
:1000D000C801B7010E94A9039B01AC01B901CA0183
:1000E0001F910F91FF90EF900895A0E0B0E0EBE733
:1000F000F0E00C94B315DC012B01FA019C919230D5
:1001000008F439C1EB018881823008F433C194309E
:1001100069F4843009F02FC111969C91119789815F
:10012000981709F428C1A2EDB0E025C1843009F484
:1001300021C18230A9F4923009F01DC19A01AD01AC
:1001400088E0EA010990AE01E90109929E0181501F
:10015000C1F7E201898111969C918923818308C1AD
:10016000923009F407C112962D903C901397EB0141
:100170008A819B811496AD90BD90CD90DC901797AD
:10018000EC80FD800E811F819101281B390BB90184
:1001900037FF04C066277727621B730B6032710537
:1001A0000CF061C0121613066CF537014801062EDB
:1001B00004C096948794779467940A94D2F721E0C8
:1001C00030E040E050E004C0220F331F441F551FB1
:1001D0006A95D2F721503040404050402E213F21B7
:1001E00040235123211531054105510521F021E01E
:1001F00030E040E050E079018A01E628F72808293C
:1002000019293CC0232BD1F1260E371E350146019A
:10021000062E04C096948794779467940A94D2F734
:1002200021E030E040E050E004C0220F331F441FC3
:10023000551F6A95D2F721503040404050402A2146
:100240003B214C215D21211531054105510521F04E
:1002500021E030E040E050E059016A01A628B728CB
:10026000C828D9280BC0821593052CF01C01AA249C
:10027000BB24650103C0EE24FF24870111969C91E5
:10028000D20111968C91981709F445C0992339F041
:10029000A80197012A193B094C095D0906C0A6016E
:1002A00095012E193F09400B510B57FD08C01182D3
:1002B0003382228224833583468357831DC081E0A5
:1002C00081833382228288279927DC01821B930B4A
:1002D000A40BB50B84839583A683B7830DC0220F2F
:1002E000331F441F551F24833583468357838281E0
:1002F000938101979383828324813581468157813D
:10030000DA01C9010197A109B1098F5F9F4FAF4F72
:10031000BF4328F30BC0918333822282EA0CFB1C7B
:100320000C1D1D1DE482F5820683178383E0808304
:10033000248135814681578157FF1AC0C901AA27F8
:1003400097FDA095BA2F81709070A070B0705695EF
:10035000479537952795822B932BA42BB52B848318
:100360009583A683B7838281938101969383828349
:10037000DF0101C0D201CD01CDB7DEB7E2E10C94BF
:10038000CF15A0E2B0E0E7ECF1E00C94BF15698373
:100390007A838B839C832D833E834F835887E9E048
:1003A000EE2EF12CEC0EFD1ECE010196B7010E943F
:1003B000D2048E010F5E1F4FCE010596B8010E9438
:1003C000D2048A8991E089278A8BC701B801AE01DE
:1003D000475E5F4F0E9475000E94FD03A096E6E015
:1003E0000C94DB15A0E2B0E0E8EFF1E00C94BF154F
:1003F00069837A838B839C832D833E834F835887C5
:10040000F9E0EF2EF12CEC0EFD1ECE010196B701A6
:100410000E94D2048E010F5E1F4FCE010596B801D7
:100420000E94D204C701B801AE01475E5F4F0E942F
:1004300075000E94FD03A096E6E00C94DB15A0E297
:10044000B0E0E5E2F2E00C94B31569837A838B8324
:100450009C832D833E834F835887CE010196BE0136
:10046000675F7F4F0E94D204CE010596BE016F5E8A
:100470007F4F0E94D2049985923088F0898982301A
:10048000C8F0943019F4823051F404C0843029F457
:10049000923081F482ED90E0C6C0923049F420E0C1
:1004A0009A858A89981321E02A87CE010996BBC0D4
:1004B000823049F420E09A858A89981321E02A8BBA
:1004C000CE014196B0C02D843E844F8458886D88FB
:1004D0007E888F88988CEE24FF248701AA24BB2471
:1004E000650140E050E060E070E0E0E0F0E0C10174
:1004F00081709070892BE9F0E60CF71C081D191D1E
:100500009A01AB012A0D3B1D4C1D5D1D80E090E062
:10051000A0E0B0E0E614F7040805190520F481E036
:1005200090E0A0E0B0E0BA01A901480F591F6A1F8E
:100530007B1FAA0CBB1CCC1CDD1C97FE08C081E0F5
:1005400090E0A0E0B0E0A82AB92ACA2ADB2A3196B6
:10055000E032F10549F0660C771C881C991C569412
:10056000479437942794C3CFFA85EA892B893C892D
:100570008B859C85280F391F2E5F3F4F17C0CA01FE
:1005800081709070892B61F016950795F794E79428
:1005900080E090E0A0E0B0E8E82AF92A0A2B1B2BC3
:1005A00076956795579547952F5F3F4F77FDE7CF36
:1005B0000CC0440F551F661F771F17FD4160EE0CDE
:1005C000FF1C001F111F21503040403090E05907A0
:1005D00090E0690790E4790760F32B8F3C8FDB0193
:1005E000CA018F779070A070B07080349105A1051A
:1005F000B10561F447FD0AC0E114F10401051105DC
:1006000029F0405C5F4F6F4F7F4F40781A8EFE1786
:1006100011F081E08A8F4D8F5E8F6F8F78A383E01A
:10062000898FCE0149960E94FD03A096E2E10C94C9
:10063000CF15A8E1B0E0EFE1F3E00C94BF156983BA
:100640007A838B839C832D833E834F83588789E0F5
:10065000E82EF12CEC0EFD1ECE010196B7010E9492
:10066000D2048E010F5E1F4FCE010596B8010E9485
:10067000D2048985823040F08989823028F0C70110
:10068000B8010E944A0501C08FEF6896E6E00C941D
:10069000DB15A8E1B0E0EFE4F3E00C94BF1569834B
:1006A0007A838B839C832D833E834F83588789E095
:1006B000E82EF12CEC0EFD1ECE010196B7010E9432
:1006C000D2048E010F5E1F4FCE010596B8010E9425
:1006D000D2048985823040F08989823028F0C701B0
:1006E000B8010E944A0501C08FEF6896E6E00C94BD
:1006F000DB15A8E1B0E0EFE7F3E00C94BF156983E8
:100700007A838B839C832D833E834F83588789E034
:10071000E82EF12CEC0EFD1ECE010196B7010E94D1
:10072000D2048E010F5E1F4FCE010596B8010E94C4
:10073000D2048985823040F08989823028F0C7014F
:10074000B8010E944A0501C081E06896E6E00C9479
:10075000DB15ACE0B0E0EFEAF3E00C94C31569837D
:100760007A838B839C83CE010196BE016B5F7F4FA2
:100770000E94D2048D81823061F1823050F1843048
:1007800021F48E81882351F12EC02F81388537FDC9
:1007900020C06E812F3131051CF06623F9F023C093
:1007A0008EE190E0821B930B29853A854B855C8511
:1007B00004C056954795379527958A95D2F76623B5
:1007C000B1F050954095309521953F4F4F4F5F4F79
:1007D0000EC020E030E040E050E009C02FEF3FEFD6
:1007E0004FEF5FE704C020E030E040E050E8B9019F
:1007F000CA012C96E2E00C94DF15DF92EF92FF9293
:100800000F931F93FC01E480F58006811781D1804E
:100810008081823048F480E090E0A0E1B0E0E82AF6
:10082000F92A0A2B1B2BA5C0843009F49FC0823003
:1008300021F4EE24FF24870105C0E114F104010531
:10084000110519F4E0E0F0E096C0628173819FEF3A
:10085000623879070CF05BC022E83FEF261B370BAC
:100860002A3131052CF020E030E040E050E02AC091
:10087000B801A701022E04C0769567955795479554
:100880000A94D2F781E090E0A0E0B0E004C0880FC5
:10089000991FAA1FBB1F2A95D2F70197A109B10979
:1008A0008E219F21A023B1230097A105B10521F03E
:1008B00081E090E0A0E0B0E09A01AB01282B392B59
:1008C0004A2B5B2BDA01C9018F779070A070B07052
:1008D00080349105A105B10539F427FF09C0205CDA
:1008E0003F4F4F4F5F4F04C0215C3F4F4F4F5F4F13
:1008F000E0E0F0E02030A0E03A07A0E04A07A0E402
:100900005A0710F0E1E0F0E079018A0127C0603871
:10091000710564F5FB01E158FF4FD801C7018F77DE
:100920009070A070B07080349105A105B10539F4C4
:10093000E7FE0DC080E490E0A0E0B0E004C08FE3EB
:1009400090E0A0E0B0E0E80EF91E0A1F1B1F17FFA1
:1009500005C016950795F794E794319687E01695AC
:100960000795F794E7948A95D1F705C0EE24FF2404
:100970008701EFEFF0E06E2F679566276795902F60
:100980009F77D794DD24D7948E2F8695492F462BB9
:10099000582F5D29B701CA011F910F91FF90EF9069
:1009A000DF900895FC01DB01408151812281622F9B
:1009B0006F7770E0221F2227221F9381892F880FD3
:1009C000822B282F30E0991F9927991F11969C930D
:1009D000119721153105A9F54115510561057105DD
:1009E00011F482E037C082E89FEF13969C938E93B8
:1009F00012979A01AB0167E0220F331F441F551F66
:100A00006A95D1F783E08C930DC0220F331F441FEA
:100A1000551F12968D919C911397019713969C9355
:100A20008E931297203080E0380780E0480780E4FA
:100A3000580758F314962D933D934D935C93179755
:100A400008952F3F310579F4411551056105710570
:100A500019F484E08C93089564FF03C081E08C93C3
:100A600012C01C9210C02F57304013963C932E9307
:100A7000129783E08C9387E0440F551F661F771F02
:100A80008A95D1F7706414964D935D936D937C9322
:100A9000179708951F93DC01FB019C91923008F495
:100AA00047C08081823008F443C0943051F41196DD
:100AB0001C91843099F58181682F70E0611B710968
:100AC0003FC0843021F0923031F48230B9F181811D
:100AD000882389F12DC011961C9111978230F1F075
:100AE00081811817D9F412962D913C911397828128
:100AF00093818217930794F028173907BCF0149656
:100B00008D919D910D90BC91A02D248135814681C0
:100B10005781281739074A075B0718F4112341F05A
:100B20000AC082179307A407B50740F4112319F0F0
:100B300061E070E005C06FEF7FEF02C060E070E041
:100B4000CB011F910895DF93CF93CDB7DEB7EAE3D2
:100B5000F0E08FE08083E7E3F0E08FEF8083E4E371
:100B6000F0E08FEF8083E1E3F0E08FEF8083CF91BF
:100B7000DF910895DF93CF9300D00F92CDB7DEB70A
:100B80008A836B8319828A81883060F58B818130FA
:100B9000A1F4ABE3B0E0EBE3F0E08081482F8A8181
:100BA000282F30E081E090E0022E02C0880F991FCC
:100BB0000A94E2F7842B8C93B6C0ABE3B0E0EBE38E
:100BC000F0E08081482F8A81282F30E081E090E09A
:100BD000022E02C0880F991F0A94E2F780958423A1
:100BE0008C93A1C08A81883090F18A81803178F518
:100BF0008A8187708A838B818130A1F4A8E3B0E079
:100C0000E8E3F0E08081482F8A81282F30E081E0FE
:100C100090E0022E02C0880F991F0A94E2F7842BFD
:100C20008C9381C0A8E3B0E0E8E3F0E08081482F36
:100C30008A81282F30E081E090E0022E02C0880FE8
:100C4000991F0A94E2F7809584238C936CC08A8163
:100C5000803190F18A81883178F58A8187708A8322
:100C60008B818130A1F4A5E3B0E0E5E3F0E0808181
:100C7000482F8A81282F30E081E090E0022E02C0C8
:100C8000880F991F0A94E2F7842B8C934CC0A5E33C
:100C9000B0E0E5E3F0E08081482F8A81282F30E042
:100CA00081E090E0022E02C0880F991F0A94E2F7BB
:100CB000809584238C9337C08A81883190F18A8112
:100CC000803278F58A8187708A838B818130A1F4A4
:100CD000A2E3B0E0E2E3F0E08081482F8A81282F90
:100CE00030E081E090E0022E02C0880F991F0A9444
:100CF000E2F7842B8C9317C0A2E3B0E0E2E3F0E0CC
:100D00008081482F8A81282F30E081E090E0022EF8
:100D100002C0880F991F0A94E2F7809584238C9370
:100D200002C083E0898389810F900F900F90CF914B
:100D3000DF910895DF93CF9300D000D0CDB7DEB719
:100D40008A837C836B8319828A818830A0F4E9E3EB
:100D5000F0E08081282F30E08A81882F90E0A9017F
:100D600002C0559547958A95E2F7CA018170EB81DB
:100D7000FC81808359C08A818830D0F08A8180319B
:100D8000B8F48A8187708A83E6E3F0E08081282FB7
:100D900030E08A81882F90E0A90102C055954795DF
:100DA0008A95E2F7CA018170EB81FC8180833CC0A7
:100DB0008A818031D0F08A818831B8F48A81877045
:100DC0008A83E3E3F0E08081282F30E08A81882F56
:100DD00090E0A90102C0559547958A95E2F7CA01AE
:100DE0008170EB81FC8180831FC08A818831D0F0C3
:100DF0008A818032B8F48A8187708A83E0E3F0E0E8
:100E00008081282F30E08A81882F90E0A90102C0DC
:100E1000559547958A95E2F7CA018170EB81FC816F
:100E2000808302C083E0898389810F900F900F90A7
:100E30000F90CF91DF910895DF93CF9300D00F9261
:100E4000CDB7DEB78A836B8319828B81813031F411
:100E50008A8161E00E94BA05898305C08A8160E0C9
:100E60000E94BA05898389810F900F900F90CF91CE
:100E7000DF910895DF93CF93CDB7DEB784E061E0D3
:100E80000E94BA0585E061E00E94BA0586E061E053
:100E90000E94BA0587E061E00E94BA05CF91DF9118
:100EA0000895DF93CF9300D0CDB7DEB78FEF89835E
:100EB00083E060E00E94BA0582E061E00E94BA052A
:100EC00081E061E00E94BA0580E061E00E94BA051D
:100ED0009E012E5F3F4F84E0B9010E949A068A81ED
:100EE000882311F481E089839E012E5F3F4F85E0C6
:100EF000B9010E949A068A81882311F484E08983CB
:100F00009E012E5F3F4F86E0B9010E949A068A81BA
:100F1000882311F487E089839E012E5F3F4F87E08D
:100F2000B9010E949A068A81882311F48FE289838D
:100F300089818F3F09F03FC083E061E00E94BA05DC
:100F400082E060E00E94BA0581E061E00E94BA059B
:100F500080E061E00E94BA059E012E5F3F4F84E071
:100F6000B9010E949A068A81882311F482E089835C
:100F70009E012E5F3F4F85E0B9010E949A068A814B
:100F8000882311F485E089839E012E5F3F4F86E020
:100F9000B9010E949A068A81882311F488E0898326
:100FA0009E012E5F3F4F87E0B9010E949A068A8119
:100FB000882309F4198289818F3F09F040C083E0BA
:100FC00061E00E94BA0582E061E00E94BA0581E01A
:100FD00060E00E94BA0580E061E00E94BA059E01CF
:100FE0002E5F3F4F84E0B9010E949A068A818823D0
:100FF00011F483E089839E012E5F3F4F85E0B901A4
:101000000E949A068A81882311F486E089839E01D2
:101010002E5F3F4F86E0B9010E949A068A8188239D
:1010200011F489E089839E012E5F3F4F87E0B9016B
:101030000E949A068A81882311F48CE4898389812D
:101040008F3F09F040C083E061E00E94BA0582E072
:1010500061E00E94BA0581E061E00E94BA0580E08B
:1010600060E00E94BA059E012E5F3F4F84E0B90107
:101070000E949A068A81882311F483E489839E0161
:101080002E5F3F4F85E0B9010E949A068A8188232E
:1010900011F48DE289839E012E5F3F4F86E0B901F6
:1010A0000E949A068A81882311F48AE289839E012C
:1010B0002E5F3F4F87E0B9010E949A068A818823FC
:1010C00011F485E4898389810F900F90CF91DF918E
:1010D00008950F931F93DF93CF93CDB7DEB7C65418
:1010E000D0400FB6F894DEBF0FBECDBFFE01ED5B62
:1010F000FF4F80E090E0A0EFB1E480839183A28372
:10110000B3838E01015C1F4FFE01ED5BFF4F6081D9
:1011100071818281938120E030E04AEF54E40E94A3
:101120001F02DC01CB01F80180839183A283B3838A
:10113000FE01FF96608171818281938120E030E021
:1011400040E85FE30E94790388232CF481E090E07B
:101150009EAF8DAF46C0FE01FF9660817181828196
:10116000938120E03FEF4FE757E40E9419031816E0
:1011700064F5FE01ED5BFF4F608171818281938197
:1011800020E030E040E251E40E941F02DC01CB018C
:10119000BC01CD010E944900DC01CB019EAF8DAFA7
:1011A0000FC088EC90E09CAF8BAF8BAD9CAD0197EE
:1011B000F1F79CAF8BAF8DAD9EAD01979EAF8DAF1C
:1011C0008DAD9EAD009769F716C0FE01FF96608158
:1011D0007181828193810E944900DC01CB019EAF25
:1011E0008DAF8DAD9EAD9AAF89AF89AD9AAD0197A8
:1011F000F1F79AAF89AF88E30E94DB0A80E090E0C4
:10120000A0E8BFE38DAB9EABAFABB8AF6DA97EA935
:101210008FA998AD20E030E04AEF54E40E941F020D
:10122000DC01CB0189AB9AABABABBCAB69A97AA9AA
:101230008BA99CA920E030E040E85FE30E9479039D
:1012400088232CF481E090E098AB8FA73FC069A978
:101250007AA98BA99CA920E03FEF4FE757E40E94B1
:10126000190318164CF56DA97EA98FA998AD20E039
:1012700030E040E251E40E941F02DC01CB01BC01DE
:10128000CD010E944900DC01CB0198AB8FA70FC0B4
:1012900088EC90E09EA78DA78DA59EA50197F1F7FC
:1012A0009EA78DA78FA598A9019798AB8FA78FA50B
:1012B00098A9009769F714C069A97AA98BA99CA974
:1012C0000E944900DC01CB0198AB8FA78FA598A99C
:1012D0009CA78BA78BA59CA50197F1F79CA78BA733
:1012E0008CE00E94DB0A80E090E0A0E8BFE38FA3DF
:1012F00098A7A9A7BAA76FA178A589A59AA520E064
:1013000030E04AEF54E40E941F02DC01CB018BA3C2
:101310009CA3ADA3BEA36BA17CA18DA19EA120E047
:1013200030E040E85FE30E94790388232CF481E0F9
:1013300090E09AA389A33FC06BA17CA18DA19EA13F
:1013400020E03FEF4FE757E40E94190318164CF5D1
:101350006FA178A589A59AA520E030E040E251E48C
:101360000E941F02DC01CB01BC01CD010E9449009B
:10137000DC01CB019AA389A30FC088EC90E098A36D
:101380008F8F8F8D98A10197F1F798A38F8F89A1E7
:101390009AA101979AA389A389A19AA1009769F7B5
:1013A00014C06BA17CA18DA19EA10E944900DC010B
:1013B000CB019AA389A389A19AA19E8F8D8F8D8D30
:1013C0009E8D0197F1F79E8F8D8F81E00E94DB0A41
:1013D00080E090E0A0E0B0E4898F9A8FAB8FBC8F63
:1013E000698D7A8D8B8D9C8D20E030E04AEF54E43E
:1013F0000E941F02DC01CB018D8B9E8BAF8BB88FBF
:101400006D897E898F89988D20E030E040E85FE328
:101410000E94790388232CF481E090E09C8B8B8BD5
:101420003FC06D897E898F89988D20E03FEF4FE71F
:1014300057E40E94190318164CF5698D7A8D8B8D2F
:101440009C8D20E030E040E251E40E941F02DC016C
:10145000CB01BC01CD010E944900DC01CB019C8B7A
:101460008B8B0FC088EC90E09A8B898B89899A8945
:101470000197F1F79A8B898B8B899C8901979C8BBB
:101480008B8B8B899C89009769F714C06D897E8945
:101490008F89988D0E944900DC01CB019C8B8B8B3E
:1014A0008B899C89988B8F878F8598890197F1F715
:1014B000988B8F8786E00E94DB0A80E090E0A0E0B6
:1014C000B0E48B879C87AD87BE876B857C858D85D7
:1014D0009E8520E030E04AEF54E40E941F02DC01C8
:1014E000CB018F839887A987BA876F817885898593
:1014F0009A8520E030E040E85FE30E94790388238A
:101500002CF481E090E09E838D833FC06F817885CD
:1015100089859A8520E03FEF4FE757E40E94190341
:1015200018164CF56B857C858D859E8520E030E016
:1015300040E251E40E941F02DC01CB01BC01CD015D
:101540000E944900DC01CB019E838D830FC088EC93
:1015500090E09C838B838B819C810197F1F79C8326
:101560008B838D819E8101979E838D838D819E814A
:10157000009769F714C06F81788589859A850E94E4
:101580004900DC01CB019E838D838D819E819A83EE
:10159000898389819A810197F1F79A838983CA5B4C
:1015A000DF4F0FB6F894DEBF0FBECDBFCF91DF91F6
:1015B0001F910F910895DF93CF930F92CDB7DEB7B0
:1015C000898385E160E00E94BA0589810E94010B50
:1015D0000F90CF91DF910895DF93CF930F92CDB706
:1015E000DEB7898385E161E00E94BA0586E160E0AB
:1015F0000E94BA0589810E94010B0F90CF91DF9163
:101600000895DF93CF93CDB7DEB76D970FB6F894FB
:10161000DEBF0FBECDBF8D8F86E160E00E94BA05B0
:101620008D8D982F91708FE1692F0E94BA058D8D55
:101630008695982F91708EE1692F0E94BA058D8D45
:1016400086958695982F91708DE1692F0E94BA0535
:101650008D8D869586958695982F91708CE1692F52
:101660000E94BA058D8D82958F70982F91708BE1B5
:10167000692F0E94BA058D8D829586958770982F67
:1016800091708AE1692F0E94BA058D8D82958695A9
:1016900086958370982F917089E1692F0E94BA0511
:1016A0008D8D982F991F9927991F88E1692F0E9486
:1016B000BA0587E161E00E94BA0580E090E0A0E809
:1016C000BFE3898F9A8FAB8FBC8F698D7A8D8B8D9D
:1016D0009C8D20E030E04AEF54E40E941F02DC01C0
:1016E000CB018D8B9E8BAF8BB88F6D897E898F8957
:1016F000988D20E030E040E85FE30E947903882382
:101700002CF481E090E09C8B8B8B3FC06D897E89AF
:101710008F89988D20E03FEF4FE757E40E9419032F
:1017200018164CF5698D7A8D8B8D9C8D20E030E0FC
:1017300040E251E40E941F02DC01CB01BC01CD015B
:101740000E944900DC01CB019C8B8B8B0FC088EC85
:1017500090E09A8B898B89899A890197F1F79A8B06
:10176000898B8B899C8901979C8B8B8B8B899C891E
:10177000009769F714C06D897E898F89988D0E94C2
:101780004900DC01CB019C8B8B8B8B899C89988BCE
:101790008F878F8598890197F1F7988B8F8787E1DD
:1017A00060E00E94BA0580E090E0A0E8BFE38B878C
:1017B0009C87AD87BE876B857C858D859E8520E067
:1017C00030E04AEF54E40E941F02DC01CB018F831A
:1017D0009887A987BA876F81788589859A8520E05F
:1017E00030E040E85FE30E94790388232CF481E035
:1017F00090E09E838D833FC06F81788589859A852F
:1018000020E03FEF4FE757E40E94190318164CF50C
:101810006B857C858D859E8520E030E040E251E43B
:101820000E941F02DC01CB01BC01CD010E944900D6
:10183000DC01CB019E838D830FC088EC90E09C83FC
:101840008B838B819C810197F1F79C838B838D81A6
:101850009E8101979E838D838D819E81009769F77C
:1018600014C06F81788589859A850E944900DC01C2
:10187000CB019E838D838D819E819A83898389810B
:101880009A810197F1F79A8389836D960FB6F89440
:10189000DEBF0FBECDBFCF91DF910895DF93CF9311
:1018A000CDB7DEB72E970FB6F894DEBF0FBECDBF13
:1018B00081E00E94DB0A80E090E0A0E0B0E48B874A
:1018C0009C87AD87BE876B857C858D859E8520E056
:1018D00030E04AEF54E40E941F02DC01CB018F8309
:1018E0009887A987BA876F81788589859A8520E04E
:1018F00030E040E85FE30E94790388232CF481E024
:1019000090E09E838D833FC06F81788589859A851D
:1019100020E03FEF4FE757E40E94190318164CF5FB
:101920006B857C858D859E8520E030E040E251E42A
:101930000E941F02DC01CB01BC01CD010E944900C5
:10194000DC01CB019E838D830FC088EC90E09C83EB
:101950008B838B819C810197F1F79C838B838D8195
:101960009E8101979E838D838D819E81009769F76B
:1019700014C06F81788589859A850E944900DC01B1
:10198000CB019E838D838D819E819A8389838981FA
:101990009A810197F1F79A8389832E960FB6F8946E
:1019A000DEBF0FBECDBFCF91DF910895DF93CF9300
:1019B00000D0CDB7DEB789836A838981813029F46D
:1019C0008A8180580E94DB0A07C08981823021F415
:1019D0008A8180540E94DB0A0F900F90CF91DF9193
:1019E0000895DF93CF9300D00F92CDB7DEB79B83DE
:1019F0008A8319820EC08981282F30E08A819B81D9
:101A0000FC01E20FF31F80810E94EC0A89818F5F45
:101A100089838981282F30E08A819B81FC01E20F34
:101A2000F31F8081882339F70F900F900F90CF918B
:101A3000DF910895DF93CF93CDB7DEB761970FB6EF
:101A4000F894DEBF0FBECDBF8B876C87CE010196A9
:101A50009E878D87EEEDF0E0F88BEF87FAE0F98B4B
:101A6000EF85F88900808F8598890196988B8F87FC
:101A7000ED85FE8500828D859E8501969E878D87EA
:101A800099899150998BE989EE2351F78B858823A9
:101A900009F089C08C85282F30E0CE010196FC0129
:101AA000E20FF31F8081982F917088E0692F0E94C8
:101AB000BA058C85282F30E0CE010196FC01E20F9B
:101AC000F31F80818695982F917089E0692F0E947D
:101AD000BA058C85282F30E0CE010196FC01E20F7B
:101AE000F31F808186958695982F91708AE0692FE3
:101AF0000E94BA058C85282F30E0CE010196FC01AA
:101B0000E20FF31F8081869586958695982F9170B8
:101B10008BE0692F0E94BA058C85282F30E0CE011A
:101B20000196FC01E20FF31F808182958F70982F40
:101B300091708CE0692F0E94BA058C85282F30E0C7
:101B4000CE010196FC01E20FF31F808182958695FC
:101B50008770982F91708DE0692F0E94BA058C854F
:101B6000282F30E0CE010196FC01E20FF31F8081A7
:101B70008295869586958370982F91708EE0692F57
:101B80000E94BA058C85282F30E0CE010196FC0119
:101B9000E20FF31F8081982F991F9927991F8FE0DB
:101BA000692F0E94BA0561960FB6F894DEBF0FBE8A
:101BB000CDBFCF91DF910895DF93CF93CDB7DEB73F
:101BC000E8970FB6F894DEBF0FBECDBF80E161E0AD
:101BD0000E94BA0581E160E00E94BA0582E160E0FE
:101BE0000E94BA0583E160E00E94BA0580E090E0BF
:101BF000A0E7B1E48DAB9EABAFABB8AF6DA97EA94A
:101C00008FA998AD20E030E04AEF54E40E941F0213
:101C1000DC01CB0189AB9AABABABBCAB69A97AA9B0
:101C20008BA99CA920E030E040E85FE30E947903A3
:101C300088232CF481E090E098AB8FA73FC069A97E
:101C40007AA98BA99CA920E03FEF4FE757E40E94B7
:101C5000190318164CF56DA97EA98FA998AD20E03F
:101C600030E040E251E40E941F02DC01CB01BC01E4
:101C7000CD010E944900DC01CB0198AB8FA70FC0BA
:101C800088EC90E09EA78DA78DA59EA50197F1F702
:101C90009EA78DA78FA598A9019798AB8FA78FA511
:101CA00098A9009769F714C069A97AA98BA99CA97A
:101CB0000E944900DC01CB0198AB8FA78FA598A9A2
:101CC0009CA78BA78BA59CA50197F1F79CA78BA739
:101CD00080E160E00E94BA0581E161E00E94BA05FE
:101CE00082E160E00E94BA0583E160E00E94BA05EB
:101CF00080E090E0A0E7B1E48FA398A7A9A7BAA7D6
:101D00006FA178A589A59AA520E030E04AEF54E4B8
:101D10000E941F02DC01CB018BA39CA3ADA3BEA339
:101D20006BA17CA18DA19EA120E030E040E85FE3A3
:101D30000E94790388232CF481E090E09AA389A380
:101D40003FC06BA17CA18DA19EA120E03FEF4FE79A
:101D500057E40E94190318164CF56FA178A589A5C0
:101D60009AA520E030E040E251E40E941F02DC012D
:101D7000CB01BC01CD010E944900DC01CB019AA33B
:101D800089A30FC088EC90E098A38F8F8F8D98A1C6
:101D90000197F1F798A38F8F89A19AA101979AA330
:101DA00089A389A19AA1009769F714C06BA17CA1AE
:101DB0008DA19EA10E944900DC01CB019AA389A3B9
:101DC00089A19AA19E8F8D8F8D8D9E8D0197F1F7A0
:101DD0009E8F8D8F80E160E00E94BA0581E160E016
:101DE0000E94BA0582E161E00E94BA0583E160E0E9
:101DF0000E94BA0580E090E0A0E7B1E4898F9A8F55
:101E0000AB8FBC8F698D7A8D8B8D9C8D20E030E0FF
:101E10004AEF54E40E941F02DC01CB018D8B9E8BA4
:101E2000AF8BB88F6D897E898F89988D20E030E0E7
:101E300040E85FE30E94790388232CF481E090E07E
:101E40009C8B8B8B3FC06D897E898F89988D20E01C
:101E50003FEF4FE757E40E94190318164CF5698DC0
:101E60007A8D8B8D9C8D20E030E040E251E40E9421
:101E70001F02DC01CB01BC01CD010E944900DC0145
:101E8000CB019C8B8B8B0FC088EC90E09A8B898B5D
:101E900089899A890197F1F79A8B898B8B899C891B
:101EA00001979C8B8B8B8B899C89009769F714C059
:101EB0006D897E898F89988D0E944900DC01CB0154
:101EC0009C8B8B8B8B899C89988B8F878F8598892E
:101ED0000197F1F7988B8F8780E160E00E94BA0547
:101EE00081E160E00E94BA0582E160E00E94BA05EB
:101EF00083E161E00E94BA0580E090E0A0E7B1E4F0
:101F00008B879C87AD87BE876B857C858D859E85FD
:101F100020E030E04AEF54E40E941F02DC01CB01D4
:101F20008F839887A987BA876F81788589859A85F5
:101F300020E030E040E85FE30E94790388232CF43E
:101F400081E090E09E838D833FC06F817885898595
:101F50009A8520E03FEF4FE757E40E9419031816D7
:101F60004CF56B857C858D859E8520E030E040E2D8
:101F700051E40E941F02DC01CB01BC01CD010E9493
:101F80004900DC01CB019E838D830FC088EC90E07B
:101F90009C838B838B819C810197F1F79C838B833E
:101FA0008D819E8101979E838D838D819E81009777
:101FB00069F714C06F81788589859A850E944900E8
:101FC000DC01CB019E838D838D819E819A838983E1
:101FD00089819A810197F1F79A838983E8960FB6F0
:101FE000F894DEBF0FBECDBFCF91DF910895DF9390
:101FF000CF93CDB7DEB7E8970FB6F894DEBF0FBE2C
:10200000CDBF80E160E00E94BA0581E160E00E94FE
:10201000BA0582E160E00E94BA0583E161E00E94B6
:10202000BA0580E090E0A0E7B1E48DAB9EABAFAB2A
:10203000B8AF6DA97EA98FA998AD20E030E04AEF36
:1020400054E40E941F02DC01CB0189AB9AABABAB1D
:10205000BCAB69A97AA98BA99CA920E030E040E833
:102060005FE30E94790388232CF481E090E098AB31
:102070008FA73FC069A97AA98BA99CA920E03FEF4F
:102080004FE757E40E94190318164CF56DA97EA975
:102090008FA998AD20E030E040E251E40E941F0299
:1020A000DC01CB01BC01CD010E944900DC01CB0168
:1020B00098AB8FA70FC088EC90E09EA78DA78DA549
:1020C0009EA50197F1F79EA78DA78FA598A90197C7
:1020D00098AB8FA78FA598A9009769F714C069A935
:1020E0007AA98BA99CA90E944900DC01CB0198AB7D
:1020F0008FA78FA598A99CA78BA78BA59CA50197B7
:10210000F1F79CA78BA780E160E00E94BA0581E10E
:1021100060E00E94BA0582E161E00E94BA0583E1B5
:1021200060E00E94BA0580E090E0A0E7B1E48FA3F0
:1021300098A7A9A7BAA76FA178A589A59AA520E015
:1021400030E04AEF54E40E941F02DC01CB018BA374
:102150009CA3ADA3BEA36BA17CA18DA19EA120E0F9
:1021600030E040E85FE30E94790388232CF481E0AB
:1021700090E09AA389A33FC06BA17CA18DA19EA1F1
:1021800020E03FEF4FE757E40E94190318164CF583
:102190006FA178A589A59AA520E030E040E251E43E
:1021A0000E941F02DC01CB01BC01CD010E9449004D
:1021B000DC01CB019AA389A30FC088EC90E098A31F
:1021C0008F8F8F8D98A10197F1F798A38F8F89A199
:1021D0009AA101979AA389A389A19AA1009769F767
:1021E00014C06BA17CA18DA19EA10E944900DC01BD
:1021F000CB019AA389A389A19AA19E8F8D8F8D8DE2
:102200009E8D0197F1F79E8F8D8F80E160E00E9497
:10221000BA0581E161E00E94BA0582E160E00E94B6
:10222000BA0583E160E00E94BA0580E090E0A0E793
:10223000B1E4898F9A8FAB8FBC8F698D7A8D8B8D2E
:102240009C8D20E030E04AEF54E40E941F02DC0144
:10225000CB018D8B9E8BAF8BB88F6D897E898F89DB
:10226000988D20E030E040E85FE30E947903882306
:102270002CF481E090E09C8B8B8B3FC06D897E8934
:102280008F89988D20E03FEF4FE757E40E941903B4
:1022900018164CF5698D7A8D8B8D9C8D20E030E081
:1022A00040E251E40E941F02DC01CB01BC01CD01E0
:1022B0000E944900DC01CB019C8B8B8B0FC088EC0A
:1022C00090E09A8B898B89899A890197F1F79A8B8B
:1022D000898B8B899C8901979C8B8B8B8B899C89A3
:1022E000009769F714C06D897E898F89988D0E9447
:1022F0004900DC01CB019C8B8B8B8B899C89988B53
:102300008F878F8598890197F1F7988B8F8780E168
:1023100061E00E94BA0581E160E00E94BA0582E1B5
:1023200060E00E94BA0583E160E00E94BA0580E0A7
:1023300090E0A0E7B1E48B879C87AD87BE876B8573
:102340007C858D859E8520E030E04AEF54E40E9434
:102350001F02DC01CB018F839887A987BA876F8121
:10236000788589859A8520E030E040E85FE30E9427
:10237000790388232CF481E090E09E838D833FC015
:102380006F81788589859A8520E03FEF4FE757E494
:102390000E94190318164CF56B857C858D859E85EA
:1023A00020E030E040E251E40E941F02DC01CB015A
:1023B000BC01CD010E944900DC01CB019E838D83CD
:1023C0000FC088EC90E09C838B838B819C8101976C
:1023D000F1F79C838B838D819E8101979E838D83F2
:1023E0008D819E81009769F714C06F8178858985FA
:1023F0009A850E944900DC01CB019E838D838D81EB
:102400009E819A83898389819A810197F1F79A83C2
:102410008983E8960FB6F894DEBF0FBECDBFCF918B
:10242000DF910895DF93CF93CDB7DEB7A0970FB6B6
:10243000F894DEBF0FBECDBF18A20E94A3050E9474
:1024400069080E943A0780E690E00E94F10C80E063
:1024500090E0AAEFB4E4898F9A8FAB8FBC8F698D1F
:102460007A8D8B8D9C8D20E030E04AEF54E40E9401
:102470001F02DC01CB018D8B9E8BAF8BB88F6D89DA
:102480007E898F89988D20E030E040E85FE30E94EC
:10249000790388232CF481E090E09C8B8B8B3FC0E8
:1024A0006D897E898F89988D20E03FEF4FE757E453
:1024B0000E94190318164CF5698D7A8D8B8D9C8DB1
:1024C00020E030E040E251E40E941F02DC01CB0139
:1024D000BC01CD010E944900DC01CB019C8B8B8BA0
:1024E0000FC088EC90E09A8B898B89899A89019733
:1024F000F1F79A8B898B8B899C8901979C8B8B8BAD
:102500008B899C89009769F714C06D897E898F89B2
:10251000988D0E944900DC01CB019C8B8B8B8B89B1
:102520009C89988B8F878F8598890197F1F7988B75
:102530008F870E944E0C8EE690E00E94F10C82E0A4
:1025400060E00E94D60C8FE00E94DB0A0E948A1590
:102550008D8F8D8D833431F418A20E94A9140E94AE
:102560009A15F4CF8D8D8534A9F40E94BA148E8FFC
:102570008E8D813049F488A1853034F418A20E94F0
:102580005B130E949A15E2CF18A20E94ED140E94DC
:102590009A15DCCF8D8D8C3429F40E94FD130E9496
:1025A0009A15D4CF8D8D882389F28D8D8A3070F65F
:1025B0008D8D805D0E94EC0A88A1992787FD9095FA
:1025C000FC01E851FF4F8D8D808388A18F5F88A328
:1025D00080E090E0AAE7B3E48B879C87AD87BE8755
:1025E0006B857C858D859E8520E030E04AEF54E444
:1025F0000E941F02DC01CB018F839887A987BA87CD
:102600006F81788589859A8520E030E040E85FE336
:102610000E94790388232CF481E090E09E838D83CF
:102620003FC06F81788589859A8520E03FEF4FE72D
:1026300057E40E94190318164CF56B857C858D852F
:102640009E8520E030E040E251E40E941F02DC0160
:10265000CB01BC01CD010E944900DC01CB019E836E
:102660008D830FC088EC90E09C838B838B819C8151
:102670000197F1F79C838B838D819E8101979E83C7
:102680008D838D819E81009769F760CF6F817885FA
:1026900089859A850E944900DC01CB019E838D8348
:1026A0008D819E819A83898389819A810197F1F72F
:1026B0009A8389834BCFDF93CF93CDB7DEB72F9724
:1026C0000FB6F894DEBF0FBECDBF0E944E0C8EE752
:1026D00090E00E94F10C82E060E00E94D60C8CE851
:1026E00090E00E94F10C83E08F877AC09F8580E0A4
:1026F000692F0E941A0D80E090E0AAE7B4E48B876E
:102700009C87AD87BE876B857C858D859E8520E007
:1027100030E04AEF54E40E941F02DC01CB018F83BA
:102720009887A987BA876F81788589859A8520E0FF
:1027300030E040E85FE30E94790388232CF481E0D5
:1027400090E09E838D833FC06F81788589859A85CF
:1027500020E03FEF4FE757E40E94190318164CF5AD
:102760006B857C858D859E8520E030E040E251E4DC
:102770000E941F02DC01CB01BC01CD010E94490077
:10278000DC01CB019E838D830FC088EC90E09C839D
:102790008B838B819C810197F1F79C838B838D8147
:1027A0009E8101979E838D838D819E81009769F71D
:1027B00014C06F81788589859A850E944900DC0163
:1027C000CB019E838D838D819E819A8389838981AC
:1027D0009A810197F1F79A8389838F8581508F873A
:1027E0008F8588230CF082CF2F960FB6F894DEBF2A
:1027F0000FBECDBFCF91DF910895DF93CF93CDB7BB
:10280000DEB72F970FB6F894DEBF0FBECDBF0E9484
:102810004E0C8EE990E00E94F10C82E060E00E9494
:10282000D60C87EA90E00E94F10C83E08F877AC093
:102830009F8580E0692F0E941A0D80E090E0AAE752
:10284000B4E48B879C87AD87BE876B857C858D853F
:102850009E8520E030E04AEF54E40E941F02DC0134
:10286000CB018F839887A987BA876F8178858985FF
:102870009A8520E030E040E85FE30E9479038823F6
:102880002CF481E090E09E838D833FC06F8178853A
:1028900089859A8520E03FEF4FE757E40E941903AE
:1028A00018164CF56B857C858D859E8520E030E083
:1028B00040E251E40E941F02DC01CB01BC01CD01CA
:1028C0000E944900DC01CB019E838D830FC088EC00
:1028D00090E09C838B838B819C810197F1F79C8393
:1028E0008B838D819E8101979E838D838D819E81B7
:1028F000009769F714C06F81788589859A850E9451
:102900004900DC01CB019E838D838D819E819A835A
:10291000898389819A810197F1F79A8389838F85C9
:1029200081508F878F8588230CF082CF0E944E0CB8
:102930008EE690E00E94F10C82E060E00E94D60CEE
:102940002F960FB6F894DEBF0FBECDBFCF91DF91AB
:102950000895DF93CF93CDB7DEB70E944E0C8EE67D
:1029600090E00E94F10C82E060E00E94D60CCF91D2
:10297000DF910895DF93CF9300D00F92CDB7DEB7EC
:102980001A82198219821DC08981992787FD909525
:10299000FC01E851FF4F20818981992787FD90959F
:1029A000FC01E652FF4F8081281731F00E94ED14A0
:1029B0001A828A818B830AC081E08A8389818F5F32
:1029C00089838981843004F38A818B838B810F9082
:1029D0000F900F90CF91DF910895DF93CF93CDB7F4
:1029E000DEB72E970FB6F894DEBF0FBECDBF0E94A4
:1029F0004E0C87EB90E00E94F10C82E060E00E94B8
:102A0000D60C87EC90E00E94F10C80E090E0AAE701
:102A1000B4E48B879C87AD87BE876B857C858D856D
:102A20009E8520E030E04AEF54E40E941F02DC0162
:102A3000CB018F839887A987BA876F81788589852D
:102A40009A8520E030E040E85FE30E947903882324
:102A50002CF481E090E09E838D833FC06F81788568
:102A600089859A8520E03FEF4FE757E40E941903DC
:102A700018164CF56B857C858D859E8520E030E0B1
:102A800040E251E40E941F02DC01CB01BC01CD01F8
:102A90000E944900DC01CB019E838D830FC088EC2E
:102AA00090E09C838B838B819C810197F1F79C83C1
:102AB0008B838D819E8101979E838D838D819E81E5
:102AC000009769F714C06F81788589859A850E947F
:102AD0004900DC01CB019E838D838D819E819A8389
:102AE000898389819A810197F1F79A8389830E946A
:102AF0004E0C8EE690E00E94F10C82E060E00E94B5
:102B0000D60C2E960FB6F894DEBF0FBECDBFCF9178
:102B1000DF910895DF93CF930F92CDB7DEB70E9478
:102B20005107898389818F3FD1F389810F90CF919C
:102B3000DF910895DF93CF930F92CDB7DEB719825F
:102B40000BC08981992787FD9095FC01E851FF4FC3
:102B5000108289818F5F89838981843094F30F90FB
:102B6000CF91DF9108952F923F924F925F926F9293
:102B70007F928F929F92AF92BF92CF92DF92EF920D
:102B8000FF920F931F93CF93DF93CDB7DEB7CA1B8E
:102B9000DB0B0FB6F894DEBF0FBECDBF09942A88B9
:102BA000398848885F846E847D848C849B84AA8461
:102BB000B984C884DF80EE80FD800C811B81AA81EE
:102BC000B981CE0FD11D0FB6F894DEBF0FBECDBFB9
:082BD000ED010895F894FFCF18
:102BD800486F6D6520536563757269747900456E39
:102BE8007465722050617373776F72643A00576529
:102BF8006C636F6D6520486F6D652100556E6C6F55
:102C0800636B696E6720446F6F722E2E2E00476FBC
:102C18006F6442796521004C6F636B696E6720446D
:102C28006F6F722E2E2E0057726F6E672050617371
:102C380073776F7264210054727920616761696EDD
:102C48002100000000000000000001020304C0F998
:082C5800A4B0999282F880906B
:00000001FF
